:020000040000FA
:100000000A128A11FC2F00308A000408840A820731
:100010000034543465346D3470343A340034203450
:0600200043340D340034EE
:100D96000A128A11F6260A128A11831603131114EF
:100DA60008000A128A11F6260A128A1183160313FC
:100DB60011150800F00083160313981CE32EE42E89
:100DC600DE2E700883120313990008002830831260
:100DD60003139400831603139101940109309300C1
:100DE600871507160800831603131419FB2EFC2E0D
:100DF600F62E11081F39031D012F022FF62E0800AB
:100E06008316031318151930990018128312031349
:100E1600981783160313071798160800F0000A128E
:100E26008A11F6260A128A11700883120313930098
:100E36000A128A11F6260A128A1108000A128A1163
:100E4600F6260A128A118316031391150A128A11BD
:100E5600F6260A128A11831203131308F200F3010D
:100E66007208F4007308F5000A128A11F6260A12AF
:100E76008A1183160313911611167508F10074086A
:100E8600F0000800F300F101F2015C2F710873070E
:100E960084000A128A1103200A128A110A128A1180
:100EA600DD260A128A110130F1070318F20A003012
:100EB600F2077108730784000A128A1103200A12C6
:100EC6008A11003A031D682F692F492F0800FF3049
:100ED6008316031386000A128A11E9260A128A115A
:100EE6000A128A1103270A128A1183120313861B18
:100EF6007D2F7E2FBE2F861F812F822F7E2F0130C2
:100F06000A128A1145270A128A11F601F7010A12F6
:100F16008A11CB260A128A1141300A128A11112728
:100F26000A128A110A128A1121270A128A117008D6
:100F36000A128A11DD260A128A110A128A11D42689
:100F46000A128A110130F6070318F70A0030F7076C
:100F56007708803AFF0080307F02031DB42F0230ED
:100F66007602031CB72FB82F8A2F07300A128A1170
:100F760045270A128A1183120313061BC32FC42F97
:100F8600782F061FC72FC82FC42FF801F9010A12A0
:100F96008A11CB260A128A1151300A128A11112798
:100FA6000A128A110A128A1121270A128A11700856
:100FB6000A128A11DD260A128A110A128A11D42609
:100FC6000A128A110130F8070318F90A0030F907E6
:100FD6007908803AFF0080307F02031DF42F073026
:100FE6007802031CF72FF82FCA2F782F0A128A11BE
:0A0FF600002883010A128A116A2FF5
:00000001FF
