:020000040000FA
:060000000A128A110E280D
:10000800FE00030EF8000408F9000A08FA000A12B4
:100018008A1129280A128A11112883133C30FD00FD
:100028000030FE00B430FF00203084000A128A112C
:10003800EE200A128A11F001F101F201F301F40134
:10004800F50183010A128A119128831203138C1D6A
:100058002E282F2888281412141B332834283828CF
:10006800941F3728382842281308F600F701760825
:10007800F0007708F1001413941314168316031371
:10008800941A472848288528141D4B284C28852869
:10009800831203131308F600F7017608F0007708B7
:1000A800F1008316031314107408F6007607203E37
:1000B8008400831300088312031393000130F407AC
:1000C8000318F50A0030F507073074067504031D98
:1000D8006E286F2873280130F2000030F3000E30CC
:1000E80074067504031D79287A287E28F201F30125
:1000F800F401F501141683160313141884288528AF
:100108007F28831203138C117A088A0079088400E7
:10011800780E8300FE0E7E0E0900831603138601F7
:1001280083120313860150300A128A11D0200A1252
:100138008A11720C83120313031C86100318861489
:10014800720873040319A928AD288312031306152E
:10015800B0288312031306119D280A128A110E284B
:1001680059340034453400344C3400344C340034B1
:100178004F340034573400340D34003447340034DD
:100188005234003445340034453400344E3400349D
:10019800203400340D340034FB007B08831603132D
:1001A800930080309400363083120313940001309A
:1001B800831603139100871507168B170B178312E5
:1001C80003138C11831603138C1508007E088A000C
:1001D8007F0882000A128A11EA200A128A11800016
:1001E800840A04087D0603190034FF0A0319FE0A6D
:0201F800EE28EF
:00000001FF
